{
    "_format": "hh-sol-artifact-1",
    "contractName": "CodeNFTs",
    "sourceName": "contracts/CodeNFTs.sol",
    "abi": [
        {
            "inputs": [
                {
                    "internalType": "address",
                    "name": "_VRFCoordinator",
                    "type": "address"
                },
                {
                    "internalType": "address",
                    "name": "_LinkToken",
                    "type": "address"
                },
                {
                    "internalType": "bytes32",
                    "name": "_keyhash",
                    "type": "bytes32"
                }
            ],
            "stateMutability": "nonpayable",
            "type": "constructor"
        },
        {
            "anonymous": false,
            "inputs": [
                {
                    "indexed": true,
                    "internalType": "address",
                    "name": "owner",
                    "type": "address"
                },
                {
                    "indexed": true,
                    "internalType": "address",
                    "name": "approved",
                    "type": "address"
                },
                {
                    "indexed": true,
                    "internalType": "uint256",
                    "name": "tokenId",
                    "type": "uint256"
                }
            ],
            "name": "Approval",
            "type": "event"
        },
        {
            "anonymous": false,
            "inputs": [
                {
                    "indexed": true,
                    "internalType": "address",
                    "name": "owner",
                    "type": "address"
                },
                {
                    "indexed": true,
                    "internalType": "address",
                    "name": "operator",
                    "type": "address"
                },
                {
                    "indexed": false,
                    "internalType": "bool",
                    "name": "approved",
                    "type": "bool"
                }
            ],
            "name": "ApprovalForAll",
            "type": "event"
        },
        {
            "anonymous": false,
            "inputs": [
                {
                    "indexed": false,
                    "internalType": "address",
                    "name": "sender",
                    "type": "address"
                },
                {
                    "indexed": false,
                    "internalType": "uint256",
                    "name": "tokenId",
                    "type": "uint256"
                }
            ],
            "name": "NFTBurned",
            "type": "event"
        },
        {
            "anonymous": false,
            "inputs": [
                {
                    "indexed": false,
                    "internalType": "address",
                    "name": "sender",
                    "type": "address"
                },
                {
                    "indexed": false,
                    "internalType": "uint256",
                    "name": "tokenId",
                    "type": "uint256"
                },
                {
                    "indexed": false,
                    "internalType": "uint256",
                    "name": "themeId",
                    "type": "uint256"
                }
            ],
            "name": "NFTMinted",
            "type": "event"
        },
        {
            "anonymous": false,
            "inputs": [
                {
                    "indexed": true,
                    "internalType": "address",
                    "name": "previousOwner",
                    "type": "address"
                },
                {
                    "indexed": true,
                    "internalType": "address",
                    "name": "newOwner",
                    "type": "address"
                }
            ],
            "name": "OwnershipTransferyellow",
            "type": "event"
        },
        {
            "anonymous": false,
            "inputs": [
                {
                    "indexed": true,
                    "internalType": "address",
                    "name": "from",
                    "type": "address"
                },
                {
                    "indexed": true,
                    "internalType": "address",
                    "name": "to",
                    "type": "address"
                },
                {
                    "indexed": true,
                    "internalType": "uint256",
                    "name": "tokenId",
                    "type": "uint256"
                }
            ],
            "name": "Transfer",
            "type": "event"
        },
        {
            "inputs": [
                {
                    "internalType": "address",
                    "name": "to",
                    "type": "address"
                },
                {
                    "internalType": "uint256",
                    "name": "tokenId",
                    "type": "uint256"
                }
            ],
            "name": "approve",
            "outputs": [],
            "stateMutability": "nonpayable",
            "type": "function"
        },
        {
            "inputs": [
                {
                    "internalType": "address",
                    "name": "owner",
                    "type": "address"
                }
            ],
            "name": "balanceOf",
            "outputs": [
                {
                    "internalType": "uint256",
                    "name": "",
                    "type": "uint256"
                }
            ],
            "stateMutability": "view",
            "type": "function"
        },
        {
            "inputs": [
                {
                    "internalType": "uint256",
                    "name": "id",
                    "type": "uint256"
                }
            ],
            "name": "burn",
            "outputs": [],
            "stateMutability": "nonpayable",
            "type": "function"
        },
        {
            "inputs": [
                {
                    "internalType": "uint256",
                    "name": "tokenId",
                    "type": "uint256"
                }
            ],
            "name": "getApproved",
            "outputs": [
                {
                    "internalType": "address",
                    "name": "",
                    "type": "address"
                }
            ],
            "stateMutability": "view",
            "type": "function"
        },
        {
            "inputs": [
                {
                    "internalType": "address",
                    "name": "owner",
                    "type": "address"
                },
                {
                    "internalType": "address",
                    "name": "operator",
                    "type": "address"
                }
            ],
            "name": "isApprovedForAll",
            "outputs": [
                {
                    "internalType": "bool",
                    "name": "",
                    "type": "bool"
                }
            ],
            "stateMutability": "view",
            "type": "function"
        },
        {
            "inputs": [],
            "name": "name",
            "outputs": [
                {
                    "internalType": "string",
                    "name": "",
                    "type": "string"
                }
            ],
            "stateMutability": "view",
            "type": "function"
        },
        {
            "inputs": [
                {
                    "internalType": "uint256",
                    "name": "",
                    "type": "uint256"
                }
            ],
            "name": "nftAttributes",
            "outputs": [
                {
                    "internalType": "uint256",
                    "name": "themeId",
                    "type": "uint256"
                }
            ],
            "stateMutability": "view",
            "type": "function"
        },
        {
            "inputs": [],
            "name": "owner",
            "outputs": [
                {
                    "internalType": "address",
                    "name": "",
                    "type": "address"
                }
            ],
            "stateMutability": "view",
            "type": "function"
        },
        {
            "inputs": [
                {
                    "internalType": "uint256",
                    "name": "tokenId",
                    "type": "uint256"
                }
            ],
            "name": "ownerOf",
            "outputs": [
                {
                    "internalType": "address",
                    "name": "",
                    "type": "address"
                }
            ],
            "stateMutability": "view",
            "type": "function"
        },
        {
            "inputs": [
                {
                    "internalType": "bytes32",
                    "name": "requestId",
                    "type": "bytes32"
                },
                {
                    "internalType": "uint256",
                    "name": "randomness",
                    "type": "uint256"
                }
            ],
            "name": "rawFulfillRandomness",
            "outputs": [],
            "stateMutability": "nonpayable",
            "type": "function"
        },
        {
            "inputs": [],
            "name": "renounceOwnership",
            "outputs": [],
            "stateMutability": "nonpayable",
            "type": "function"
        },
        {
            "inputs": [],
            "name": "requestRandomTheme",
            "outputs": [],
            "stateMutability": "nonpayable",
            "type": "function"
        },
        {
            "inputs": [
                {
                    "internalType": "address",
                    "name": "from",
                    "type": "address"
                },
                {
                    "internalType": "address",
                    "name": "to",
                    "type": "address"
                },
                {
                    "internalType": "uint256",
                    "name": "tokenId",
                    "type": "uint256"
                }
            ],
            "name": "safeTransferFrom",
            "outputs": [],
            "stateMutability": "nonpayable",
            "type": "function"
        },
        {
            "inputs": [
                {
                    "internalType": "address",
                    "name": "from",
                    "type": "address"
                },
                {
                    "internalType": "address",
                    "name": "to",
                    "type": "address"
                },
                {
                    "internalType": "uint256",
                    "name": "tokenId",
                    "type": "uint256"
                },
                {
                    "internalType": "bytes",
                    "name": "_data",
                    "type": "bytes"
                }
            ],
            "name": "safeTransferFrom",
            "outputs": [],
            "stateMutability": "nonpayable",
            "type": "function"
        },
        {
            "inputs": [
                {
                    "internalType": "address",
                    "name": "operator",
                    "type": "address"
                },
                {
                    "internalType": "bool",
                    "name": "approved",
                    "type": "bool"
                }
            ],
            "name": "setApprovalForAll",
            "outputs": [],
            "stateMutability": "nonpayable",
            "type": "function"
        },
        {
            "inputs": [
                {
                    "internalType": "uint256",
                    "name": "tokenId",
                    "type": "uint256"
                },
                {
                    "internalType": "string",
                    "name": "tokenUri",
                    "type": "string"
                }
            ],
            "name": "setTokenURI",
            "outputs": [],
            "stateMutability": "nonpayable",
            "type": "function"
        },
        {
            "inputs": [
                {
                    "internalType": "bytes4",
                    "name": "interfaceId",
                    "type": "bytes4"
                }
            ],
            "name": "supportsInterface",
            "outputs": [
                {
                    "internalType": "bool",
                    "name": "",
                    "type": "bool"
                }
            ],
            "stateMutability": "view",
            "type": "function"
        },
        {
            "inputs": [],
            "name": "symbol",
            "outputs": [
                {
                    "internalType": "string",
                    "name": "",
                    "type": "string"
                }
            ],
            "stateMutability": "view",
            "type": "function"
        },
        {
            "inputs": [
                {
                    "internalType": "uint256",
                    "name": "tokenId",
                    "type": "uint256"
                }
            ],
            "name": "tokenURI",
            "outputs": [
                {
                    "internalType": "string",
                    "name": "",
                    "type": "string"
                }
            ],
            "stateMutability": "view",
            "type": "function"
        },
        {
            "inputs": [
                {
                    "internalType": "address",
                    "name": "from",
                    "type": "address"
                },
                {
                    "internalType": "address",
                    "name": "to",
                    "type": "address"
                },
                {
                    "internalType": "uint256",
                    "name": "tokenId",
                    "type": "uint256"
                }
            ],
            "name": "transferFrom",
            "outputs": [],
            "stateMutability": "nonpayable",
            "type": "function"
        },
        {
            "inputs": [
                {
                    "internalType": "address",
                    "name": "newOwner",
                    "type": "address"
                }
            ],
            "name": "transferOwnership",
            "outputs": [],
            "stateMutability": "nonpayable",
            "type": "function"
        }
    ],
    "bytecode": "0x60c06040523480156200001157600080fd5b5060405162003ea438038062003ea4833981810160405281019062000037919062000361565b82826040518060400160405280600881526020017f436f64654e4654730000000000000000000000000000000000000000000000008152506040518060400160405280600481526020017f434f4445000000000000000000000000000000000000000000000000000000008152508160009080519060200190620000bd92919062000283565b508060019080519060200190620000d692919062000283565b505050620000f9620000ed6200019f60201b60201c565b620001a760201b60201c565b8173ffffffffffffffffffffffffffffffffffffffff1660a08173ffffffffffffffffffffffffffffffffffffffff1660601b815250508073ffffffffffffffffffffffffffffffffffffffff1660808173ffffffffffffffffffffffffffffffffffffffff1660601b8152505050506200018060096200026d60201b620011d61760201c565b80600a8190555067016345785d8a0000600b819055505050506200048e565b600033905090565b6000600760009054906101000a900473ffffffffffffffffffffffffffffffffffffffff16905081600760006101000a81548173ffffffffffffffffffffffffffffffffffffffff021916908373ffffffffffffffffffffffffffffffffffffffff1602179055508173ffffffffffffffffffffffffffffffffffffffff168173ffffffffffffffffffffffffffffffffffffffff167f8be0079c531659141344cd1fd0a4f28419497f9722a3daafe3b4186f6b6457e060405160405180910390a35050565b6001816000016000828254019250508190555050565b8280546200029190620003f5565b90600052602060002090601f016020900481019282620002b5576000855562000301565b82601f10620002d057805160ff191683800117855562000301565b8280016001018555821562000301579182015b8281111562000300578251825591602001919060010190620002e3565b5b50905062000310919062000314565b5090565b5b808211156200032f57600081600090555060010162000315565b5090565b60008151905062000344816200045a565b92915050565b6000815190506200035b8162000474565b92915050565b6000806000606084860312156200037757600080fd5b6000620003878682870162000333565b93505060206200039a8682870162000333565b9250506040620003ad868287016200034a565b9150509250925092565b6000620003c482620003d5565b9050919050565b6000819050919050565b600073ffffffffffffffffffffffffffffffffffffffff82169050919050565b600060028204905060018216806200040e57607f821691505b602082108114156200042557620004246200042b565b5b50919050565b7f4e487b7100000000000000000000000000000000000000000000000000000000600052602260045260246000fd5b6200046581620003b7565b81146200047157600080fd5b50565b6200047f81620003cb565b81146200048b57600080fd5b50565b60805160601c60a05160601c6139dc620004c860003960008181610a4f01526119a9015260008181610aee015261196d01526139dc6000f3fe608060405234801561001057600080fd5b50600436106101375760003560e01c8063715018a6116100b8578063a22cb4651161007c578063a22cb46514610312578063b88d4fde1461032e578063c87b56dd1461034a578063d4b5d6031461037a578063e985e9c5146103aa578063f2fde38b146103da57610137565b8063715018a6146102a65780638da5cb5b146102b057806394985ddd146102ce57806394d5317b146102ea57806395d89b41146102f457610137565b806323b872dd116100ff57806323b872dd146101f257806342842e0e1461020e57806342966c681461022a5780636352211e1461024657806370a082311461027657610137565b806301ffc9a71461013c57806306fdde031461016c578063081812fc1461018a578063095ea7b3146101ba578063162094c4146101d6575b600080fd5b6101566004803603810190610151919061277d565b6103f6565b6040516101639190613211565b60405180910390f35b6101746104d8565b604051610181919061329a565b60405180910390f35b6101a4600480360381019061019f91906127cf565b61056a565b6040516101b1919061310c565b60405180910390f35b6101d460048036038101906101cf91906126dc565b6105ef565b005b6101f060048036038101906101eb9190612821565b610707565b005b61020c600480360381019061020791906125d6565b610765565b005b610228600480360381019061022391906125d6565b6107c5565b005b610244600480360381019061023f91906127cf565b6107e5565b005b610260600480360381019061025b91906127cf565b610831565b60405161026d919061310c565b60405180910390f35b610290600480360381019061028b9190612571565b6108e3565b60405161029d919061353c565b60405180910390f35b6102ae61099b565b005b6102b8610a23565b6040516102c5919061310c565b60405180910390f35b6102e860048036038101906102e39190612741565b610a4d565b005b6102f2610ae9565b005b6102fc610c65565b604051610309919061329a565b60405180910390f35b61032c600480360381019061032791906126a0565b610cf7565b005b61034860048036038101906103439190612625565b610e78565b005b610364600480360381019061035f91906127cf565b610eda565b604051610371919061329a565b60405180910390f35b610394600480360381019061038f91906127cf565b61102c565b6040516103a1919061353c565b60405180910390f35b6103c460048036038101906103bf919061259a565b61104a565b6040516103d19190613211565b60405180910390f35b6103f460048036038101906103ef9190612571565b6110de565b005b60007f80ac58cd000000000000000000000000000000000000000000000000000000007bffffffffffffffffffffffffffffffffffffffffffffffffffffffff1916827bffffffffffffffffffffffffffffffffffffffffffffffffffffffff191614806104c157507f5b5e139f000000000000000000000000000000000000000000000000000000007bffffffffffffffffffffffffffffffffffffffffffffffffffffffff1916827bffffffffffffffffffffffffffffffffffffffffffffffffffffffff1916145b806104d157506104d0826111ec565b5b9050919050565b6060600080546104e7906137a6565b80601f0160208091040260200160405190810160405280929190818152602001828054610513906137a6565b80156105605780601f1061053557610100808354040283529160200191610560565b820191906000526020600020905b81548152906001019060200180831161054357829003601f168201915b5050505050905090565b600061057582611256565b6105b4576040517f08c379a00000000000000000000000000000000000000000000000000000000081526004016105ab9061345c565b60405180910390fd5b6004600083815260200190815260200160002060009054906101000a900473ffffffffffffffffffffffffffffffffffffffff169050919050565b60006105fa82610831565b90508073ffffffffffffffffffffffffffffffffffffffff168373ffffffffffffffffffffffffffffffffffffffff16141561066b576040517f08c379a0000000000000000000000000000000000000000000000000000000008152600401610662906134fc565b60405180910390fd5b8073ffffffffffffffffffffffffffffffffffffffff1661068a6112c2565b73ffffffffffffffffffffffffffffffffffffffff1614806106b957506106b8816106b36112c2565b61104a565b5b6106f8576040517f08c379a00000000000000000000000000000000000000000000000000000000081526004016106ef9061339c565b60405180910390fd5b61070283836112ca565b505050565b6107186107126112c2565b83611383565b610757576040517f08c379a000000000000000000000000000000000000000000000000000000000815260040161074e9061351c565b60405180910390fd5b6107618282611461565b5050565b6107766107706112c2565b82611383565b6107b5576040517f08c379a00000000000000000000000000000000000000000000000000000000081526004016107ac9061351c565b60405180910390fd5b6107c08383836114d5565b505050565b6107e083838360405180602001604052806000815250610e78565b505050565b6107ee81611731565b7fd6a6bcd88cdc4656d5f4e14e7dfbc9bc3f2f9811f8d6b508f3bee7d999d4d41c6108176112c2565b82604051610826929190613173565b60405180910390a150565b6000806002600084815260200190815260200160002060009054906101000a900473ffffffffffffffffffffffffffffffffffffffff169050600073ffffffffffffffffffffffffffffffffffffffff168173ffffffffffffffffffffffffffffffffffffffff1614156108da576040517f08c379a00000000000000000000000000000000000000000000000000000000081526004016108d1906133dc565b60405180910390fd5b80915050919050565b60008073ffffffffffffffffffffffffffffffffffffffff168273ffffffffffffffffffffffffffffffffffffffff161415610954576040517f08c379a000000000000000000000000000000000000000000000000000000000815260040161094b906133bc565b60405180910390fd5b600360008373ffffffffffffffffffffffffffffffffffffffff1673ffffffffffffffffffffffffffffffffffffffff168152602001908152602001600020549050919050565b6109a36112c2565b73ffffffffffffffffffffffffffffffffffffffff166109c1610a23565b73ffffffffffffffffffffffffffffffffffffffff1614610a17576040517f08c379a0000000000000000000000000000000000000000000000000000000008152600401610a0e9061347c565b60405180910390fd5b610a216000611784565b565b6000600760009054906101000a900473ffffffffffffffffffffffffffffffffffffffff16905090565b7f000000000000000000000000000000000000000000000000000000000000000073ffffffffffffffffffffffffffffffffffffffff163373ffffffffffffffffffffffffffffffffffffffff1614610adb576040517f08c379a0000000000000000000000000000000000000000000000000000000008152600401610ad2906134dc565b60405180910390fd5b610ae5828261184a565b5050565b600b547f000000000000000000000000000000000000000000000000000000000000000073ffffffffffffffffffffffffffffffffffffffff166370a08231306040518263ffffffff1660e01b8152600401610b45919061310c565b60206040518083038186803b158015610b5d57600080fd5b505afa158015610b71573d6000803e3d6000fd5b505050506040513d601f19601f82011682018060405250810190610b9591906127f8565b1015610bd6576040517f08c379a0000000000000000000000000000000000000000000000000000000008152600401610bcd9061335c565b60405180910390fd5b6000610be6600a54600b54611969565b9050610bf26009611acb565b600d600083815260200190815260200160002081905550610c116112c2565b600e600083815260200190815260200160002060006101000a81548173ffffffffffffffffffffffffffffffffffffffff021916908373ffffffffffffffffffffffffffffffffffffffff16021790555050565b606060018054610c74906137a6565b80601f0160208091040260200160405190810160405280929190818152602001828054610ca0906137a6565b8015610ced5780601f10610cc257610100808354040283529160200191610ced565b820191906000526020600020905b815481529060010190602001808311610cd057829003601f168201915b5050505050905090565b610cff6112c2565b73ffffffffffffffffffffffffffffffffffffffff168273ffffffffffffffffffffffffffffffffffffffff161415610d6d576040517f08c379a0000000000000000000000000000000000000000000000000000000008152600401610d649061333c565b60405180910390fd5b8060056000610d7a6112c2565b73ffffffffffffffffffffffffffffffffffffffff1673ffffffffffffffffffffffffffffffffffffffff16815260200190815260200160002060008473ffffffffffffffffffffffffffffffffffffffff1673ffffffffffffffffffffffffffffffffffffffff16815260200190815260200160002060006101000a81548160ff0219169083151502179055508173ffffffffffffffffffffffffffffffffffffffff16610e276112c2565b73ffffffffffffffffffffffffffffffffffffffff167f17307eab39ab6107e8899845ad3d59bd9653f200f220920489ca2b5937696c3183604051610e6c9190613211565b60405180910390a35050565b610e89610e836112c2565b83611383565b610ec8576040517f08c379a0000000000000000000000000000000000000000000000000000000008152600401610ebf9061351c565b60405180910390fd5b610ed484848484611ad9565b50505050565b6060610ee582611256565b610f24576040517f08c379a0000000000000000000000000000000000000000000000000000000008152600401610f1b9061343c565b60405180910390fd5b6000600660008481526020019081526020016000208054610f44906137a6565b80601f0160208091040260200160405190810160405280929190818152602001828054610f70906137a6565b8015610fbd5780601f10610f9257610100808354040283529160200191610fbd565b820191906000526020600020905b815481529060010190602001808311610fa057829003601f168201915b505050505090506000610fce611b35565b9050600081511415610fe4578192505050611027565b6000825111156110195780826040516020016110019291906130e8565b60405160208183030381529060405292505050611027565b61102284611b4c565b925050505b919050565b600c6020528060005260406000206000915090508060000154905081565b6000600560008473ffffffffffffffffffffffffffffffffffffffff1673ffffffffffffffffffffffffffffffffffffffff16815260200190815260200160002060008373ffffffffffffffffffffffffffffffffffffffff1673ffffffffffffffffffffffffffffffffffffffff16815260200190815260200160002060009054906101000a900460ff16905092915050565b6110e66112c2565b73ffffffffffffffffffffffffffffffffffffffff16611104610a23565b73ffffffffffffffffffffffffffffffffffffffff161461115a576040517f08c379a00000000000000000000000000000000000000000000000000000000081526004016111519061347c565b60405180910390fd5b600073ffffffffffffffffffffffffffffffffffffffff168173ffffffffffffffffffffffffffffffffffffffff1614156111ca576040517f08c379a00000000000000000000000000000000000000000000000000000000081526004016111c1906132dc565b60405180910390fd5b6111d381611784565b50565b6001816000016000828254019250508190555050565b60007f01ffc9a7000000000000000000000000000000000000000000000000000000007bffffffffffffffffffffffffffffffffffffffffffffffffffffffff1916827bffffffffffffffffffffffffffffffffffffffffffffffffffffffff1916149050919050565b60008073ffffffffffffffffffffffffffffffffffffffff166002600084815260200190815260200160002060009054906101000a900473ffffffffffffffffffffffffffffffffffffffff1673ffffffffffffffffffffffffffffffffffffffff1614159050919050565b600033905090565b816004600083815260200190815260200160002060006101000a81548173ffffffffffffffffffffffffffffffffffffffff021916908373ffffffffffffffffffffffffffffffffffffffff160217905550808273ffffffffffffffffffffffffffffffffffffffff1661133d83610831565b73ffffffffffffffffffffffffffffffffffffffff167f8c5be1e5ebec7d5bd14f71427d1e84f3dd0314c0f7b2291e5b200ac8c7c3b92560405160405180910390a45050565b600061138e82611256565b6113cd576040517f08c379a00000000000000000000000000000000000000000000000000000000081526004016113c49061337c565b60405180910390fd5b60006113d883610831565b90508073ffffffffffffffffffffffffffffffffffffffff168473ffffffffffffffffffffffffffffffffffffffff16148061144757508373ffffffffffffffffffffffffffffffffffffffff1661142f8461056a565b73ffffffffffffffffffffffffffffffffffffffff16145b806114585750611457818561104a565b5b91505092915050565b61146a82611256565b6114a9576040517f08c379a00000000000000000000000000000000000000000000000000000000081526004016114a0906133fc565b60405180910390fd5b806006600084815260200190815260200160002090805190602001906114d0929190612316565b505050565b8273ffffffffffffffffffffffffffffffffffffffff166114f582610831565b73ffffffffffffffffffffffffffffffffffffffff161461154b576040517f08c379a00000000000000000000000000000000000000000000000000000000081526004016115429061349c565b60405180910390fd5b600073ffffffffffffffffffffffffffffffffffffffff168273ffffffffffffffffffffffffffffffffffffffff1614156115bb576040517f08c379a00000000000000000000000000000000000000000000000000000000081526004016115b29061331c565b60405180910390fd5b6115c6838383611bf3565b6115d16000826112ca565b6001600360008573ffffffffffffffffffffffffffffffffffffffff1673ffffffffffffffffffffffffffffffffffffffff168152602001908152602001600020600082825461162191906136b2565b925050819055506001600360008473ffffffffffffffffffffffffffffffffffffffff1673ffffffffffffffffffffffffffffffffffffffff1681526020019081526020016000206000828254611678919061362b565b92505081905550816002600083815260200190815260200160002060006101000a81548173ffffffffffffffffffffffffffffffffffffffff021916908373ffffffffffffffffffffffffffffffffffffffff160217905550808273ffffffffffffffffffffffffffffffffffffffff168473ffffffffffffffffffffffffffffffffffffffff167fddf252ad1be2c89b69c2b068fc378daa952ba7f163c4a11628f55a4df523b3ef60405160405180910390a4505050565b61173a81611bf8565b600060066000838152602001908152602001600020805461175a906137a6565b90501461178157600660008281526020019081526020016000206000611780919061239c565b5b50565b6000600760009054906101000a900473ffffffffffffffffffffffffffffffffffffffff16905081600760006101000a81548173ffffffffffffffffffffffffffffffffffffffff021916908373ffffffffffffffffffffffffffffffffffffffff1602179055508173ffffffffffffffffffffffffffffffffffffffff168173ffffffffffffffffffffffffffffffffffffffff167f8be0079c531659141344cd1fd0a4f28419497f9722a3daafe3b4186f6b6457e060405160405180910390a35050565b6000600d600084815260200190815260200160002054905060006001600a846118739190613835565b61187d919061362b565b9050604051806020016040528082815250600c6000848152602001908152602001600020600082015181600001559050506118eb600e600086815260200190815260200160002060009054906101000a900473ffffffffffffffffffffffffffffffffffffffff1683611d09565b6118f560096111d6565b7f3a8a89b59a31c39a36febecb987e0657ab7b7c73b60ebacb44dcb9886c2d5c8a600e600086815260200190815260200160002060009054906101000a900473ffffffffffffffffffffffffffffffffffffffff16838360405161195b939291906131da565b60405180910390a150505050565b60007f000000000000000000000000000000000000000000000000000000000000000073ffffffffffffffffffffffffffffffffffffffff16634000aea07f0000000000000000000000000000000000000000000000000000000000000000848660006040516020016119dd92919061322c565b6040516020818303038152906040526040518463ffffffff1660e01b8152600401611a0a9392919061319c565b602060405180830381600087803b158015611a2457600080fd5b505af1158015611a38573d6000803e3d6000fd5b505050506040513d601f19601f82011682018060405250810190611a5c9190612718565b506000611a7f846000306008600089815260200190815260200160002054611d27565b905060016008600086815260200190815260200160002054611aa1919061362b565b6008600086815260200190815260200160002081905550611ac28482611d63565b91505092915050565b600081600001549050919050565b611ae48484846114d5565b611af084848484611d96565b611b2f576040517f08c379a0000000000000000000000000000000000000000000000000000000008152600401611b26906132bc565b60405180910390fd5b50505050565b606060405180602001604052806000815250905090565b6060611b5782611256565b611b96576040517f08c379a0000000000000000000000000000000000000000000000000000000008152600401611b8d906134bc565b60405180910390fd5b6000611ba0611b35565b90506000815111611bc05760405180602001604052806000815250611beb565b80611bca84611f2d565b604051602001611bdb9291906130e8565b6040516020818303038152906040525b915050919050565b505050565b6000611c0382610831565b9050611c1181600084611bf3565b611c1c6000836112ca565b6001600360008373ffffffffffffffffffffffffffffffffffffffff1673ffffffffffffffffffffffffffffffffffffffff1681526020019081526020016000206000828254611c6c91906136b2565b925050819055506002600083815260200190815260200160002060006101000a81549073ffffffffffffffffffffffffffffffffffffffff021916905581600073ffffffffffffffffffffffffffffffffffffffff168273ffffffffffffffffffffffffffffffffffffffff167fddf252ad1be2c89b69c2b068fc378daa952ba7f163c4a11628f55a4df523b3ef60405160405180910390a45050565b611d238282604051806020016040528060008152506120da565b5050565b600084848484604051602001611d409493929190613255565b6040516020818303038152906040528051906020012060001c9050949350505050565b60008282604051602001611d789291906130bc565b60405160208183030381529060405280519060200120905092915050565b6000611db78473ffffffffffffffffffffffffffffffffffffffff16612135565b15611f20578373ffffffffffffffffffffffffffffffffffffffff1663150b7a02611de06112c2565b8786866040518563ffffffff1660e01b8152600401611e029493929190613127565b602060405180830381600087803b158015611e1c57600080fd5b505af1925050508015611e4d57506040513d601f19601f82011682018060405250810190611e4a91906127a6565b60015b611ed0573d8060008114611e7d576040519150601f19603f3d011682016040523d82523d6000602084013e611e82565b606091505b50600081511415611ec8576040517f08c379a0000000000000000000000000000000000000000000000000000000008152600401611ebf906132bc565b60405180910390fd5b805181602001fd5b63150b7a0260e01b7bffffffffffffffffffffffffffffffffffffffffffffffffffffffff1916817bffffffffffffffffffffffffffffffffffffffffffffffffffffffff191614915050611f25565b600190505b949350505050565b60606000821415611f75576040518060400160405280600181526020017f300000000000000000000000000000000000000000000000000000000000000081525090506120d5565b600082905060005b60008214611fa7578080611f90906137d8565b915050600a82611fa09190613681565b9150611f7d565b60008167ffffffffffffffff811115611fe9577f4e487b7100000000000000000000000000000000000000000000000000000000600052604160045260246000fd5b6040519080825280601f01601f19166020018201604052801561201b5781602001600182028036833780820191505090505b5090505b600085146120ce5760018261203491906136b2565b9150600a856120439190613835565b603061204f919061362b565b60f81b81838151811061208b577f4e487b7100000000000000000000000000000000000000000000000000000000600052603260045260246000fd5b60200101907effffffffffffffffffffffffffffffffffffffffffffffffffffffffffffff1916908160001a905350600a856120c79190613681565b945061201f565b8093505050505b919050565b6120e48383612148565b6120f16000848484611d96565b612130576040517f08c379a0000000000000000000000000000000000000000000000000000000008152600401612127906132bc565b60405180910390fd5b505050565b600080823b905060008111915050919050565b600073ffffffffffffffffffffffffffffffffffffffff168273ffffffffffffffffffffffffffffffffffffffff1614156121b8576040517f08c379a00000000000000000000000000000000000000000000000000000000081526004016121af9061341c565b60405180910390fd5b6121c181611256565b15612201576040517f08c379a00000000000000000000000000000000000000000000000000000000081526004016121f8906132fc565b60405180910390fd5b61220d60008383611bf3565b6001600360008473ffffffffffffffffffffffffffffffffffffffff1673ffffffffffffffffffffffffffffffffffffffff168152602001908152602001600020600082825461225d919061362b565b92505081905550816002600083815260200190815260200160002060006101000a81548173ffffffffffffffffffffffffffffffffffffffff021916908373ffffffffffffffffffffffffffffffffffffffff160217905550808273ffffffffffffffffffffffffffffffffffffffff16600073ffffffffffffffffffffffffffffffffffffffff167fddf252ad1be2c89b69c2b068fc378daa952ba7f163c4a11628f55a4df523b3ef60405160405180910390a45050565b828054612322906137a6565b90600052602060002090601f016020900481019282612344576000855561238b565b82601f1061235d57805160ff191683800117855561238b565b8280016001018555821561238b579182015b8281111561238a57825182559160200191906001019061236f565b5b50905061239891906123dc565b5090565b5080546123a8906137a6565b6000825580601f106123ba57506123d9565b601f0160209004906000526020600020908101906123d891906123dc565b5b50565b5b808211156123f55760008160009055506001016123dd565b5090565b600061240c61240784613588565b613557565b90508281526020810184848401111561242457600080fd5b61242f848285613764565b509392505050565b600061244a612445846135b8565b613557565b90508281526020810184848401111561246257600080fd5b61246d848285613764565b509392505050565b60008135905061248481613933565b92915050565b6000813590506124998161394a565b92915050565b6000815190506124ae8161394a565b92915050565b6000813590506124c381613961565b92915050565b6000813590506124d881613978565b92915050565b6000815190506124ed81613978565b92915050565b600082601f83011261250457600080fd5b81356125148482602086016123f9565b91505092915050565b600082601f83011261252e57600080fd5b813561253e848260208601612437565b91505092915050565b6000813590506125568161398f565b92915050565b60008151905061256b8161398f565b92915050565b60006020828403121561258357600080fd5b600061259184828501612475565b91505092915050565b600080604083850312156125ad57600080fd5b60006125bb85828601612475565b92505060206125cc85828601612475565b9150509250929050565b6000806000606084860312156125eb57600080fd5b60006125f986828701612475565b935050602061260a86828701612475565b925050604061261b86828701612547565b9150509250925092565b6000806000806080858703121561263b57600080fd5b600061264987828801612475565b945050602061265a87828801612475565b935050604061266b87828801612547565b925050606085013567ffffffffffffffff81111561268857600080fd5b612694878288016124f3565b91505092959194509250565b600080604083850312156126b357600080fd5b60006126c185828601612475565b92505060206126d28582860161248a565b9150509250929050565b600080604083850312156126ef57600080fd5b60006126fd85828601612475565b925050602061270e85828601612547565b9150509250929050565b60006020828403121561272a57600080fd5b60006127388482850161249f565b91505092915050565b6000806040838503121561275457600080fd5b6000612762858286016124b4565b925050602061277385828601612547565b9150509250929050565b60006020828403121561278f57600080fd5b600061279d848285016124c9565b91505092915050565b6000602082840312156127b857600080fd5b60006127c6848285016124de565b91505092915050565b6000602082840312156127e157600080fd5b60006127ef84828501612547565b91505092915050565b60006020828403121561280a57600080fd5b60006128188482850161255c565b91505092915050565b6000806040838503121561283457600080fd5b600061284285828601612547565b925050602083013567ffffffffffffffff81111561285f57600080fd5b61286b8582860161251d565b9150509250929050565b61287e816136e6565b82525050565b61288d816136f8565b82525050565b61289c81613704565b82525050565b6128b36128ae82613704565b613821565b82525050565b60006128c4826135e8565b6128ce81856135fe565b93506128de818560208601613773565b6128e781613922565b840191505092915050565b60006128fd826135f3565b612907818561360f565b9350612917818560208601613773565b61292081613922565b840191505092915050565b6000612936826135f3565b6129408185613620565b9350612950818560208601613773565b80840191505092915050565b600061296960328361360f565b91507f4552433732313a207472616e7366657220746f206e6f6e20455243373231526560008301527f63656976657220696d706c656d656e74657200000000000000000000000000006020830152604082019050919050565b60006129cf60268361360f565b91507f4f776e61626c653a206e6577206f776e657220697320746865207a65726f206160008301527f64647265737300000000000000000000000000000000000000000000000000006020830152604082019050919050565b6000612a35601c8361360f565b91507f4552433732313a20746f6b656e20616c7265616479206d696e746564000000006000830152602082019050919050565b6000612a7560248361360f565b91507f4552433732313a207472616e7366657220746f20746865207a65726f2061646460008301527f72657373000000000000000000000000000000000000000000000000000000006020830152604082019050919050565b6000612adb60198361360f565b91507f4552433732313a20617070726f766520746f2063616c6c6572000000000000006000830152602082019050919050565b6000612b1b602b8361360f565b91507f4e6f7420656e6f756768204c494e4b202d2066696c6c20636f6e74726163742060008301527f77697468206661756365740000000000000000000000000000000000000000006020830152604082019050919050565b6000612b81602c8361360f565b91507f4552433732313a206f70657261746f7220717565727920666f72206e6f6e657860008301527f697374656e7420746f6b656e00000000000000000000000000000000000000006020830152604082019050919050565b6000612be760388361360f565b91507f4552433732313a20617070726f76652063616c6c6572206973206e6f74206f7760008301527f6e6572206e6f7220617070726f76656420666f7220616c6c00000000000000006020830152604082019050919050565b6000612c4d602a8361360f565b91507f4552433732313a2062616c616e636520717565727920666f7220746865207a6560008301527f726f2061646472657373000000000000000000000000000000000000000000006020830152604082019050919050565b6000612cb360298361360f565b91507f4552433732313a206f776e657220717565727920666f72206e6f6e657869737460008301527f656e7420746f6b656e00000000000000000000000000000000000000000000006020830152604082019050919050565b6000612d19602e8361360f565b91507f45524337323155524953746f726167653a2055524920736574206f66206e6f6e60008301527f6578697374656e7420746f6b656e0000000000000000000000000000000000006020830152604082019050919050565b6000612d7f60208361360f565b91507f4552433732313a206d696e7420746f20746865207a65726f20616464726573736000830152602082019050919050565b6000612dbf60318361360f565b91507f45524337323155524953746f726167653a2055524920717565727920666f722060008301527f6e6f6e6578697374656e7420746f6b656e0000000000000000000000000000006020830152604082019050919050565b6000612e25602c8361360f565b91507f4552433732313a20617070726f76656420717565727920666f72206e6f6e657860008301527f697374656e7420746f6b656e00000000000000000000000000000000000000006020830152604082019050919050565b6000612e8b60208361360f565b91507f4f776e61626c653a2063616c6c6572206973206e6f7420746865206f776e65726000830152602082019050919050565b6000612ecb60298361360f565b91507f4552433732313a207472616e73666572206f6620746f6b656e2074686174206960008301527f73206e6f74206f776e00000000000000000000000000000000000000000000006020830152604082019050919050565b6000612f31602f8361360f565b91507f4552433732314d657461646174613a2055524920717565727920666f72206e6f60008301527f6e6578697374656e7420746f6b656e00000000000000000000000000000000006020830152604082019050919050565b6000612f97601f8361360f565b91507f4f6e6c7920565246436f6f7264696e61746f722063616e2066756c66696c6c006000830152602082019050919050565b6000612fd760218361360f565b91507f4552433732313a20617070726f76616c20746f2063757272656e74206f776e6560008301527f72000000000000000000000000000000000000000000000000000000000000006020830152604082019050919050565b600061303d60318361360f565b91507f4552433732313a207472616e736665722063616c6c6572206973206e6f74206f60008301527f776e6572206e6f7220617070726f7665640000000000000000000000000000006020830152604082019050919050565b61309f8161375a565b82525050565b6130b66130b18261375a565b61382b565b82525050565b60006130c882856128a2565b6020820191506130d882846130a5565b6020820191508190509392505050565b60006130f4828561292b565b9150613100828461292b565b91508190509392505050565b60006020820190506131216000830184612875565b92915050565b600060808201905061313c6000830187612875565b6131496020830186612875565b6131566040830185613096565b818103606083015261316881846128b9565b905095945050505050565b60006040820190506131886000830185612875565b6131956020830184613096565b9392505050565b60006060820190506131b16000830186612875565b6131be6020830185613096565b81810360408301526131d081846128b9565b9050949350505050565b60006060820190506131ef6000830186612875565b6131fc6020830185613096565b6132096040830184613096565b949350505050565b60006020820190506132266000830184612884565b92915050565b60006040820190506132416000830185612893565b61324e6020830184613096565b9392505050565b600060808201905061326a6000830187612893565b6132776020830186613096565b6132846040830185612875565b6132916060830184613096565b95945050505050565b600060208201905081810360008301526132b481846128f2565b905092915050565b600060208201905081810360008301526132d58161295c565b9050919050565b600060208201905081810360008301526132f5816129c2565b9050919050565b6000602082019050818103600083015261331581612a28565b9050919050565b6000602082019050818103600083015261333581612a68565b9050919050565b6000602082019050818103600083015261335581612ace565b9050919050565b6000602082019050818103600083015261337581612b0e565b9050919050565b6000602082019050818103600083015261339581612b74565b9050919050565b600060208201905081810360008301526133b581612bda565b9050919050565b600060208201905081810360008301526133d581612c40565b9050919050565b600060208201905081810360008301526133f581612ca6565b9050919050565b6000602082019050818103600083015261341581612d0c565b9050919050565b6000602082019050818103600083015261343581612d72565b9050919050565b6000602082019050818103600083015261345581612db2565b9050919050565b6000602082019050818103600083015261347581612e18565b9050919050565b6000602082019050818103600083015261349581612e7e565b9050919050565b600060208201905081810360008301526134b581612ebe565b9050919050565b600060208201905081810360008301526134d581612f24565b9050919050565b600060208201905081810360008301526134f581612f8a565b9050919050565b6000602082019050818103600083015261351581612fca565b9050919050565b6000602082019050818103600083015261353581613030565b9050919050565b60006020820190506135516000830184613096565b92915050565b6000604051905081810181811067ffffffffffffffff8211171561357e5761357d6138f3565b5b8060405250919050565b600067ffffffffffffffff8211156135a3576135a26138f3565b5b601f19601f8301169050602081019050919050565b600067ffffffffffffffff8211156135d3576135d26138f3565b5b601f19601f8301169050602081019050919050565b600081519050919050565b600081519050919050565b600082825260208201905092915050565b600082825260208201905092915050565b600081905092915050565b60006136368261375a565b91506136418361375a565b9250827fffffffffffffffffffffffffffffffffffffffffffffffffffffffffffffffff0382111561367657613675613866565b5b828201905092915050565b600061368c8261375a565b91506136978361375a565b9250826136a7576136a6613895565b5b828204905092915050565b60006136bd8261375a565b91506136c88361375a565b9250828210156136db576136da613866565b5b828203905092915050565b60006136f18261373a565b9050919050565b60008115159050919050565b6000819050919050565b60007fffffffff0000000000000000000000000000000000000000000000000000000082169050919050565b600073ffffffffffffffffffffffffffffffffffffffff82169050919050565b6000819050919050565b82818337600083830152505050565b60005b83811015613791578082015181840152602081019050613776565b838111156137a0576000848401525b50505050565b600060028204905060018216806137be57607f821691505b602082108114156137d2576137d16138c4565b5b50919050565b60006137e38261375a565b91507fffffffffffffffffffffffffffffffffffffffffffffffffffffffffffffffff82141561381657613815613866565b5b600182019050919050565b6000819050919050565b6000819050919050565b60006138408261375a565b915061384b8361375a565b92508261385b5761385a613895565b5b828206905092915050565b7f4e487b7100000000000000000000000000000000000000000000000000000000600052601160045260246000fd5b7f4e487b7100000000000000000000000000000000000000000000000000000000600052601260045260246000fd5b7f4e487b7100000000000000000000000000000000000000000000000000000000600052602260045260246000fd5b7f4e487b7100000000000000000000000000000000000000000000000000000000600052604160045260246000fd5b6000601f19601f8301169050919050565b61393c816136e6565b811461394757600080fd5b50565b613953816136f8565b811461395e57600080fd5b50565b61396a81613704565b811461397557600080fd5b50565b6139818161370e565b811461398c57600080fd5b50565b6139988161375a565b81146139a357600080fd5b5056fea2646970667358221220eb1e6a16d18ecbd00ffb88331033f0ae98239d2b5b08594fecec7a47776080b664736f6c63430008000033",
    "linkReferences": {},
    "deployedLinkReferences": {}
}